:1000000010C015C014C014C012C011C010C00FC061
:100010000EC00DC00CC00BC00AC009C008C007C08C
:1000200006C011241FBECFEDCDBF34D04DC0E8CFE8
:100030001F920F920FB60F9211248F939F9387E90F
:100040009AE30197F1F700C00000B09917C0B19989
:1000500006C0B19BFECF9BB381E089278BBBB299D1
:1000600006C0B29BFECF9BB382E089278BBBD89B97
:1000700004C0D99B02C0DA9A01C0DA98B09B03C0D1
:10008000D898D998DA989F918F910F900FBE0F90C2
:100090001F90189587B3887F87BB88B3876088BB1C
:1000A000D09AD898D19AD998D29ADA988BB7806298
:1000B0008BBF80B5826080BD80B5846080BD80B517
:0C00C000816080BD7894FFCFF894FFCFE2
:00000001FF
